{"abi":[{"type":"fallback","stateMutability":"payable"},{"type":"receive","stateMutability":"payable"},{"type":"function","name":"getPublicKeyRoot","inputs":[],"outputs":[{"name":"","type":"bytes32","internalType":"bytes32"}],"stateMutability":"view"},{"type":"function","name":"getWithdrawer","inputs":[],"outputs":[{"name":"","type":"address","internalType":"address"}],"stateMutability":"view"},{"type":"function","name":"init","inputs":[{"name":"_dispatcher","type":"address","internalType":"address"},{"name":"_publicKeyRoot","type":"bytes32","internalType":"bytes32"}],"outputs":[],"stateMutability":"nonpayable"},{"type":"function","name":"withdraw","inputs":[],"outputs":[],"stateMutability":"nonpayable"},{"type":"error","name":"AlreadyInitialized","inputs":[]},{"type":"error","name":"Unauthorized","inputs":[]}],"bytecode":{"object":"0x608060405234801561001057600080fd5b506103c3806100206000396000f3fe6080604052600436106100405760003560e01c80632cc0b254146100495780633ccfd60b146100695780637d38d21f1461007e5780637f763702146100bd57005b3661004757005b005b34801561005557600080fd5b5061004761006436600461033d565b6100db565b34801561007557600080fd5b50610047610196565b34801561008a57600080fd5b50610093610277565b60405173ffffffffffffffffffffffffffffffffffffffff90911681526020015b60405180910390f35b3480156100c957600080fd5b506001546040519081526020016100b4565b60005460ff1615610118576040517f0dc149f000000000000000000000000000000000000000000000000000000000815260040160405180910390fd5b6000805473ffffffffffffffffffffffffffffffffffffffff909316610100027fffffffffffffffffffffff0000000000000000000000000000000000000000009093169290921760019081179092559055600280547fffffffffffffffffffffffff00000000000000000000000000000000000000001633179055565b60025473ffffffffffffffffffffffffffffffffffffffff1633146101e7576040517f82b4290000000000000000000000000000000000000000000000000000000000815260040160405180910390fd5b6000546001546040517fce120650000000000000000000000000000000000000000000000000000000008152600481019190915261010090910473ffffffffffffffffffffffffffffffffffffffff169063ce1206509047906024016000604051808303818588803b15801561025c57600080fd5b505af1158015610270573d6000803e3d6000fd5b5050505050565b600080546001546040517f27de9016000000000000000000000000000000000000000000000000000000008152600481019190915261010090910473ffffffffffffffffffffffffffffffffffffffff16906327de901690602401602060405180830381865afa1580156102ef573d6000803e3d6000fd5b505050506040513d601f19601f820116820180604052508101906103139190610369565b905090565b73ffffffffffffffffffffffffffffffffffffffff8116811461033a57600080fd5b50565b6000806040838503121561035057600080fd5b823561035b81610318565b946020939093013593505050565b60006020828403121561037b57600080fd5b815161038681610318565b939250505056fea264697066735822122001e0e2b215dc81a5d453847b289b5b77d35f3b22ab00719c12d8704647f743bd64736f6c634300080d0033","linkReferences":{}},"methodIdentifiers":{"getPublicKeyRoot()":"7f763702","getWithdrawer()":"7d38d21f","init(address,bytes32)":"2cc0b254","withdraw()":"3ccfd60b"},"id":29}