{"abi":[{"type":"fallback","stateMutability":"payable"},{"type":"receive","stateMutability":"payable"},{"type":"function","name":"getPublicKeyRoot","inputs":[],"outputs":[{"name":"","type":"bytes32","internalType":"bytes32"}],"stateMutability":"view"},{"type":"function","name":"getWithdrawer","inputs":[],"outputs":[{"name":"","type":"address","internalType":"address"}],"stateMutability":"view"},{"type":"function","name":"init","inputs":[{"name":"_dispatcher","type":"address","internalType":"address"},{"name":"_publicKeyRoot","type":"bytes32","internalType":"bytes32"}],"outputs":[],"stateMutability":"nonpayable"},{"type":"function","name":"withdraw","inputs":[],"outputs":[],"stateMutability":"nonpayable"},{"type":"error","name":"AlreadyInitialized","inputs":[]}],"bytecode":{"object":"0x608060405234801561001057600080fd5b50610348806100206000396000f3fe6080604052600436106100405760003560e01c80632cc0b254146100495780633ccfd60b146100695780637d38d21f1461007e5780637f763702146100bd57005b3661004757005b005b34801561005557600080fd5b506100476100643660046102c2565b6100db565b34801561007557600080fd5b5061004761016c565b34801561008a57600080fd5b506100936101fc565b60405173ffffffffffffffffffffffffffffffffffffffff90911681526020015b60405180910390f35b3480156100c957600080fd5b506001546040519081526020016100b4565b60005460ff1615610118576040517f0dc149f000000000000000000000000000000000000000000000000000000000815260040160405180910390fd5b6000805473ffffffffffffffffffffffffffffffffffffffff909316610100027fffffffffffffffffffffff0000000000000000000000000000000000000000009093169290921760019081179092559055565b6000546001546040517fce120650000000000000000000000000000000000000000000000000000000008152600481019190915261010090910473ffffffffffffffffffffffffffffffffffffffff169063ce1206509047906024016000604051808303818588803b1580156101e157600080fd5b505af11580156101f5573d6000803e3d6000fd5b5050505050565b600080546001546040517f27de9016000000000000000000000000000000000000000000000000000000008152600481019190915261010090910473ffffffffffffffffffffffffffffffffffffffff16906327de901690602401602060405180830381865afa158015610274573d6000803e3d6000fd5b505050506040513d601f19601f8201168201806040525081019061029891906102ee565b905090565b73ffffffffffffffffffffffffffffffffffffffff811681146102bf57600080fd5b50565b600080604083850312156102d557600080fd5b82356102e08161029d565b946020939093013593505050565b60006020828403121561030057600080fd5b815161030b8161029d565b939250505056fea2646970667358221220eb071b86f6bee123fb9175af24b2e952434ff649a7b15cccf789b6f41d601b9964736f6c634300080d0033","linkReferences":{}},"methodIdentifiers":{"getPublicKeyRoot()":"7f763702","getWithdrawer()":"7d38d21f","init(address,bytes32)":"2cc0b254","withdraw()":"3ccfd60b"},"id":31}