{"src/contracts/TUPProxy.sol":{"TUPProxy":{"abi":[{"type":"constructor","inputs":[{"name":"_logic","type":"address","internalType":"address"},{"name":"admin_","type":"address","internalType":"address"},{"name":"_data","type":"bytes","internalType":"bytes"}],"stateMutability":"payable"},{"type":"fallback","stateMutability":"payable"},{"type":"receive","stateMutability":"payable"},{"type":"function","name":"admin","inputs":[],"outputs":[{"name":"admin_","type":"address","internalType":"address"}],"stateMutability":"nonpayable"},{"type":"function","name":"changeAdmin","inputs":[{"name":"newAdmin","type":"address","internalType":"address"}],"outputs":[],"stateMutability":"nonpayable"},{"type":"function","name":"implementation","inputs":[],"outputs":[{"name":"implementation_","type":"address","internalType":"address"}],"stateMutability":"nonpayable"},{"type":"function","name":"isPaused","inputs":[],"outputs":[{"name":"","type":"bool","internalType":"bool"}],"stateMutability":"nonpayable"},{"type":"function","name":"pause","inputs":[],"outputs":[],"stateMutability":"nonpayable"},{"type":"function","name":"unpause","inputs":[],"outputs":[],"stateMutability":"nonpayable"},{"type":"function","name":"upgradeTo","inputs":[{"name":"newImplementation","type":"address","internalType":"address"}],"outputs":[],"stateMutability":"nonpayable"},{"type":"function","name":"upgradeToAndCall","inputs":[{"name":"newImplementation","type":"address","internalType":"address"},{"name":"data","type":"bytes","internalType":"bytes"}],"outputs":[],"stateMutability":"payable"},{"type":"event","name":"AdminChanged","inputs":[{"name":"previousAdmin","type":"address","indexed":false,"internalType":"address"},{"name":"newAdmin","type":"address","indexed":false,"internalType":"address"}],"anonymous":false},{"type":"event","name":"BeaconUpgraded","inputs":[{"name":"beacon","type":"address","indexed":true,"internalType":"address"}],"anonymous":false},{"type":"event","name":"Upgraded","inputs":[{"name":"implementation","type":"address","indexed":true,"internalType":"address"}],"anonymous":false},{"type":"error","name":"CallWhenPaused","inputs":[]}],"userdoc":{},"devdoc":{},"evm":{"bytecode":{"object":"6080604052604051620013933803806200139383398101604081905262000026916200051f565b82828282816200005860017f360894a13ba1a3210667c828492db98dca3e2076cc3735a920a3ca505d382bbd620005ff565b6000805160206200134c8339815191521462000078576200007862000625565b6200008682826000620000ed565b50620000b6905060017fb53127684a568b3173ae13b9f8a6016e243e63b6e8ee1178d6a717850b5d6104620005ff565b6000805160206200132c83398151915214620000d657620000d662000625565b620000e1826200012a565b5050505050506200068e565b620000f88362000185565b600082511180620001065750805b156200012557620001238383620001c760201b620004381760201c565b505b505050565b7f7e644d79422f17c01e4894b5f4f588d331ebfa28653d42ae832dc59e38c9798f62000155620001f6565b604080516001600160a01b03928316815291841660208301520160405180910390a162000182816200022f565b50565b6200019081620002e4565b6040516001600160a01b038216907fbc7cd75a20ee27fd9adebab32041f755214dbc6bffa90cc0225b39da2e5c2d3b90600090a250565b6060620001ef83836040518060600160405280602781526020016200136c6027913962000387565b9392505050565b6000620002206000805160206200132c83398151915260001b6200046d60201b620002441760201c565b546001600160a01b0316919050565b6001600160a01b0381166200029a5760405162461bcd60e51b815260206004820152602660248201527f455243313936373a206e65772061646d696e20697320746865207a65726f206160448201526564647265737360d01b60648201526084015b60405180910390fd5b80620002c36000805160206200132c83398151915260001b6200046d60201b620002441760201c565b80546001600160a01b0319166001600160a01b039290921691909117905550565b620002fa816200047060201b620004641760201c565b6200035e5760405162461bcd60e51b815260206004820152602d60248201527f455243313936373a206e657720696d706c656d656e746174696f6e206973206e60448201526c1bdd08184818dbdb9d1c9858dd609a1b606482015260840162000291565b80620002c36000805160206200134c83398151915260001b6200046d60201b620002441760201c565b60606001600160a01b0384163b620003f15760405162461bcd60e51b815260206004820152602660248201527f416464726573733a2064656c65676174652063616c6c20746f206e6f6e2d636f6044820152651b9d1c9858dd60d21b606482015260840162000291565b600080856001600160a01b0316856040516200040e91906200063b565b600060405180830381855af49150503d80600081146200044b576040519150601f19603f3d011682016040523d82523d6000602084013e62000450565b606091505b509092509050620004638282866200047f565b9695505050505050565b90565b6001600160a01b03163b151590565b6060831562000490575081620001ef565b825115620004a15782518084602001fd5b8160405162461bcd60e51b815260040162000291919062000659565b80516001600160a01b0381168114620004d557600080fd5b919050565b634e487b7160e01b600052604160045260246000fd5b60005b838110156200050d578181015183820152602001620004f3565b83811115620001235750506000910152565b6000806000606084860312156200053557600080fd5b6200054084620004bd565b92506200055060208501620004bd565b60408501519092506001600160401b03808211156200056e57600080fd5b818601915086601f8301126200058357600080fd5b815181811115620005985762000598620004da565b604051601f8201601f19908116603f01168101908382118183101715620005c357620005c3620004da565b81604052828152896020848701011115620005dd57600080fd5b620005f0836020830160208801620004f0565b80955050505050509250925092565b6000828210156200062057634e487b7160e01b600052601160045260246000fd5b500390565b634e487b7160e01b600052600160045260246000fd5b600082516200064f818460208701620004f0565b9190910192915050565b60208152600082518060208401526200067a816040850160208701620004f0565b601f01601f19169190910160400192915050565b610c8e806200069e6000396000f3fe60806040526004361061007f5760003560e01c80638456cb591161004e5780638456cb591461011d5780638f28397014610132578063b187bd2614610152578063f851a440146101775761008e565b80633659cfe6146100965780633f4ba83a146100b65780634f1ef286146100cb5780635c60da1b146100de5761008e565b3661008e5761008c61018c565b005b61008c61018c565b3480156100a257600080fd5b5061008c6100b1366004610abc565b6101a6565b3480156100c257600080fd5b5061008c6101f0565b61008c6100d9366004610ad7565b61027e565b3480156100ea57600080fd5b506100f36102f2565b60405173ffffffffffffffffffffffffffffffffffffffff90911681526020015b60405180910390f35b34801561012957600080fd5b5061008c61032d565b34801561013e57600080fd5b5061008c61014d366004610abc565b610380565b34801561015e57600080fd5b506101676103ad565b6040519015158152602001610114565b34801561018357600080fd5b506100f361040a565b610194610480565b6101a461019f6104fb565b610505565b565b6101ae610529565b73ffffffffffffffffffffffffffffffffffffffff1633036101e8576101e581604051806020016040528060008152506000610569565b50565b6101e561018c565b6101f8610529565b73ffffffffffffffffffffffffffffffffffffffff16330361027657600061024761024460017fa1c51e2db0fd509c88c4d1d064260a12d10b4b2370d6c629050bf501458f88c0610b5a565b90565b80547fffffffffffffffffffffffffffffffffffffffffffffffffffffffffffffff0016911515919091179055565b6101a461018c565b610286610529565b73ffffffffffffffffffffffffffffffffffffffff1633036102ea576102e58383838080601f01602080910402602001604051908101604052809392919081815260200183838082843760009201919091525060019250610569915050565b505050565b6102e561018c565b60006102fc610529565b73ffffffffffffffffffffffffffffffffffffffff163303610325576103206104fb565b905090565b61024461018c565b610335610529565b73ffffffffffffffffffffffffffffffffffffffff163303610276576001610247610244827fa1c51e2db0fd509c88c4d1d064260a12d10b4b2370d6c629050bf501458f88c0610b5a565b610388610529565b73ffffffffffffffffffffffffffffffffffffffff1633036101e8576101e581610594565b60006103b7610529565b73ffffffffffffffffffffffffffffffffffffffff1633036103255761040161024460017fa1c51e2db0fd509c88c4d1d064260a12d10b4b2370d6c629050bf501458f88c0610b5a565b5460ff16905090565b6000610414610529565b73ffffffffffffffffffffffffffffffffffffffff16330361032557610320610529565b606061045d8383604051806060016040528060278152602001610c32602791396105f5565b9392505050565b73ffffffffffffffffffffffffffffffffffffffff163b151590565b6104ae61024460017fa1c51e2db0fd509c88c4d1d064260a12d10b4b2370d6c629050bf501458f88c0610b5a565b5460ff1615806104bc575033155b156104c9576101a4610722565b6040517f2514f7d400000000000000000000000000000000000000000000000000000000815260040160405180910390fd5b60006103206107f4565b3660008037600080366000845af43d6000803e808015610524573d6000f35b3d6000fd5b60007fb53127684a568b3173ae13b9f8a6016e243e63b6e8ee1178d6a717850b5d61035b5473ffffffffffffffffffffffffffffffffffffffff16919050565b6105728361081c565b60008251118061057f5750805b156102e55761058e8383610438565b50505050565b7f7e644d79422f17c01e4894b5f4f588d331ebfa28653d42ae832dc59e38c9798f6105bd610529565b6040805173ffffffffffffffffffffffffffffffffffffffff928316815291841660208301520160405180910390a16101e581610869565b606073ffffffffffffffffffffffffffffffffffffffff84163b6106a0576040517f08c379a000000000000000000000000000000000000000000000000000000000815260206004820152602660248201527f416464726573733a2064656c65676174652063616c6c20746f206e6f6e2d636f60448201527f6e7472616374000000000000000000000000000000000000000000000000000060648201526084015b60405180910390fd5b6000808573ffffffffffffffffffffffffffffffffffffffff16856040516106c89190610bc4565b600060405180830381855af49150503d8060008114610703576040519150601f19603f3d011682016040523d82523d6000602084013e610708565b606091505b5091509150610718828286610975565b9695505050505050565b61072a610529565b73ffffffffffffffffffffffffffffffffffffffff1633036101a4576040517f08c379a000000000000000000000000000000000000000000000000000000000815260206004820152604260248201527f5472616e73706172656e745570677261646561626c6550726f78793a2061646d60448201527f696e2063616e6e6f742066616c6c6261636b20746f2070726f7879207461726760648201527f6574000000000000000000000000000000000000000000000000000000000000608482015260a401610697565b60007f360894a13ba1a3210667c828492db98dca3e2076cc3735a920a3ca505d382bbc61054d565b610825816109c8565b60405173ffffffffffffffffffffffffffffffffffffffff8216907fbc7cd75a20ee27fd9adebab32041f755214dbc6bffa90cc0225b39da2e5c2d3b90600090a250565b73ffffffffffffffffffffffffffffffffffffffff811661090c576040517f08c379a000000000000000000000000000000000000000000000000000000000815260206004820152602660248201527f455243313936373a206e65772061646d696e20697320746865207a65726f206160448201527f64647265737300000000000000000000000000000000000000000000000000006064820152608401610697565b807fb53127684a568b3173ae13b9f8a6016e243e63b6e8ee1178d6a717850b5d61035b80547fffffffffffffffffffffffff00000000000000000000000000000000000000001673ffffffffffffffffffffffffffffffffffffffff9290921691909117905550565b6060831561098457508161045d565b8251156109945782518084602001fd5b816040517f08c379a00000000000000000000000000000000000000000000000000000000081526004016106979190610be0565b73ffffffffffffffffffffffffffffffffffffffff81163b610a6c576040517f08c379a000000000000000000000000000000000000000000000000000000000815260206004820152602d60248201527f455243313936373a206e657720696d706c656d656e746174696f6e206973206e60448201527f6f74206120636f6e7472616374000000000000000000000000000000000000006064820152608401610697565b807f360894a13ba1a3210667c828492db98dca3e2076cc3735a920a3ca505d382bbc61092f565b803573ffffffffffffffffffffffffffffffffffffffff81168114610ab757600080fd5b919050565b600060208284031215610ace57600080fd5b61045d82610a93565b600080600060408486031215610aec57600080fd5b610af584610a93565b9250602084013567ffffffffffffffff80821115610b1257600080fd5b818601915086601f830112610b2657600080fd5b813581811115610b3557600080fd5b876020828501011115610b4757600080fd5b6020830194508093505050509250925092565b600082821015610b93577f4e487b7100000000000000000000000000000000000000000000000000000000600052601160045260246000fd5b500390565b60005b83811015610bb3578181015183820152602001610b9b565b8381111561058e5750506000910152565b60008251610bd6818460208701610b98565b9190910192915050565b6020815260008251806020840152610bff816040850160208701610b98565b601f017fffffffffffffffffffffffffffffffffffffffffffffffffffffffffffffffe016919091016040019291505056fe416464726573733a206c6f772d6c6576656c2064656c65676174652063616c6c206661696c6564a2646970667358221220721a45e41aea5f6edf4177a335d8bbf67a2ab395295d7d1d60ce7bbabb37389c64736f6c634300080d0033b53127684a568b3173ae13b9f8a6016e243e63b6e8ee1178d6a717850b5d6103360894a13ba1a3210667c828492db98dca3e2076cc3735a920a3ca505d382bbc416464726573733a206c6f772d6c6576656c2064656c65676174652063616c6c206661696c6564","linkReferences":{}},"methodIdentifiers":{"admin()":"f851a440","changeAdmin(address)":"8f283970","implementation()":"5c60da1b","isPaused()":"b187bd26","pause()":"8456cb59","unpause()":"3f4ba83a","upgradeTo(address)":"3659cfe6","upgradeToAndCall(address,bytes)":"4f1ef286"}}}}}