{"abi":[{"type":"constructor","inputs":[{"name":"_version","type":"uint256","internalType":"uint256"}],"stateMutability":"nonpayable"},{"type":"fallback","stateMutability":"payable"},{"type":"receive","stateMutability":"payable"},{"type":"function","name":"dispatch","inputs":[{"name":"_publicKeyRoot","type":"bytes32","internalType":"bytes32"}],"outputs":[],"stateMutability":"payable"},{"type":"function","name":"getStakingContract","inputs":[],"outputs":[{"name":"","type":"address","internalType":"address"}],"stateMutability":"view"},{"type":"function","name":"getWithdrawer","inputs":[{"name":"_publicKeyRoot","type":"bytes32","internalType":"bytes32"}],"outputs":[{"name":"","type":"address","internalType":"address"}],"stateMutability":"view"},{"type":"function","name":"initCLD","inputs":[{"name":"_stakingContract","type":"address","internalType":"address"}],"outputs":[],"stateMutability":"nonpayable"},{"type":"event","name":"Withdrawal","inputs":[{"name":"withdrawer","type":"address","indexed":true,"internalType":"address"},{"name":"feeRecipient","type":"address","indexed":true,"internalType":"address"},{"name":"pubKeyRoot","type":"bytes32","indexed":false,"internalType":"bytes32"},{"name":"rewards","type":"uint256","indexed":false,"internalType":"uint256"},{"name":"nodeOperatorFee","type":"uint256","indexed":false,"internalType":"uint256"},{"name":"treasuryFee","type":"uint256","indexed":false,"internalType":"uint256"}],"anonymous":false},{"type":"error","name":"AlreadyInitialized","inputs":[]},{"type":"error","name":"FeeRecipientReceiveError","inputs":[{"name":"errorData","type":"bytes","internalType":"bytes"}]},{"type":"error","name":"InvalidCall","inputs":[]},{"type":"error","name":"TreasuryReceiveError","inputs":[{"name":"errorData","type":"bytes","internalType":"bytes"}]},{"type":"error","name":"WithdrawerReceiveError","inputs":[{"name":"errorData","type":"bytes","internalType":"bytes"}]},{"type":"error","name":"ZeroBalanceWithdrawal","inputs":[]}],"bytecode":{"object":"0x608060405234801561001057600080fd5b50604051610d7b380380610d7b83398101604081905261002f91610070565b610066817f6081a8ce97ad8a3951bac5b885ad6097d6b55cb45a6dd62b5069939f8c95ffef61006c60201b610aad1790919060201c565b50610089565b9055565b60006020828403121561008257600080fd5b5051919050565b610ce3806100986000396000f3fe6080604052600436106100435760003560e01c806327de9016146100ac5780635f0f28d9146100f55780638e68dce414610117578063ce1206501461012c5761007a565b3661007a576040517fae962d4e00000000000000000000000000000000000000000000000000000000815260040160405180910390fd5b6040517fae962d4e00000000000000000000000000000000000000000000000000000000815260040160405180910390fd5b3480156100b857600080fd5b506100cc6100c7366004610ab1565b61013f565b60405173ffffffffffffffffffffffffffffffffffffffff909116815260200160405180910390f35b34801561010157600080fd5b50610115610110366004610aef565b610203565b005b34801561012357600080fd5b506100cc6102c6565b61011561013a366004610ab1565b6102f5565b60008061016a7ff0fe62e71ff1ce44ef40d55534c386cf3d375849a5782af5d4e66df449ae3a515490565b6040517fa74008010000000000000000000000000000000000000000000000000000000081526004810185905290915073ffffffffffffffffffffffffffffffffffffffff82169063a740080190602401602060405180830381865afa1580156101d8573d6000803e3d6000fd5b505050506040513d601f19601f820116820180604052508101906101fc9190610b0c565b9392505050565b600161022d7f6081a8ce97ad8a3951bac5b885ad6097d6b55cb45a6dd62b5069939f8c95ffef5490565b610238906001610b58565b8114610270576040517f0dc149f000000000000000000000000000000000000000000000000000000000815260040160405180910390fd5b6102997f6081a8ce97ad8a3951bac5b885ad6097d6b55cb45a6dd62b5069939f8c95ffef829055565b6102c27ff0fe62e71ff1ce44ef40d55534c386cf3d375849a5782af5d4e66df449ae3a51839055565b5050565b60006102f07ff0fe62e71ff1ce44ef40d55534c386cf3d375849a5782af5d4e66df449ae3a515490565b905090565b600061031f7ff0fe62e71ff1ce44ef40d55534c386cf3d375849a5782af5d4e66df449ae3a515490565b905047600081900361035d576040517fb6562b0a00000000000000000000000000000000000000000000000000000000815260040160405180910390fd5b6040517fc13d03500000000000000000000000000000000000000000000000000000000081526004810184905260009073ffffffffffffffffffffffffffffffffffffffff84169063c13d035090602401602060405180830381865afa1580156103cb573d6000803e3d6000fd5b505050506040513d601f19601f820116820180604052508101906103ef9190610b70565b6040517fcac594df0000000000000000000000000000000000000000000000000000000081526004810186905290915060009073ffffffffffffffffffffffffffffffffffffffff85169063cac594df90602401602060405180830381865afa158015610460573d6000803e3d6000fd5b505050506040513d601f19601f820116820180604052508101906104849190610b70565b90508282801561049d57506801ae361fc1451c00008410155b80156104a7575081155b156105605760006801bc16d674ec80000082116104c457816104cf565b6801bc16d674ec8000005b90506104db8183610b92565b6040517fb86bcaf70000000000000000000000000000000000000000000000000000000081526004810189905290925073ffffffffffffffffffffffffffffffffffffffff87169063b86bcaf790602401600060405180830381600087803b15801561054657600080fd5b505af115801561055a573d6000803e3d6000fd5b50505050505b60006127108673ffffffffffffffffffffffffffffffffffffffff16631bcbfaba6040518163ffffffff1660e01b8152600401602060405180830381865afa1580156105b0573d6000803e3d6000fd5b505050506040513d601f19601f820116820180604052508101906105d49190610ba9565b6105de9084610bc2565b6105e89190610bff565b905060006127108773ffffffffffffffffffffffffffffffffffffffff1663286966086040518163ffffffff1660e01b8152600401602060405180830381865afa15801561063a573d6000803e3d6000fd5b505050506040513d601f19601f8201168201806040525081019061065e9190610ba9565b6106689084610bc2565b6106729190610bff565b6040517f9adf91ee000000000000000000000000000000000000000000000000000000008152600481018a905290915060009073ffffffffffffffffffffffffffffffffffffffff891690639adf91ee90602401602060405180830381865afa1580156106e3573d6000803e3d6000fd5b505050506040513d601f19601f820116820180604052508101906107079190610b0c565b905060008873ffffffffffffffffffffffffffffffffffffffff16633b19e84a6040518163ffffffff1660e01b8152600401602060405180830381865afa158015610756573d6000803e3d6000fd5b505050506040513d601f19601f8201168201806040525081019061077a9190610b0c565b6040517fa7400801000000000000000000000000000000000000000000000000000000008152600481018c905290915060009073ffffffffffffffffffffffffffffffffffffffff8b169063a740080190602401602060405180830381865afa1580156107eb573d6000803e3d6000fd5b505050506040513d601f19601f8201168201806040525081019061080f9190610b0c565b905060008073ffffffffffffffffffffffffffffffffffffffff8316610835888d610b92565b604051600081818185875af1925050503d8060008114610871576040519150601f19603f3d011682016040523d82523d6000602084013e610876565b606091505b5090925090508115156000036108c357806040517fce13343d0000000000000000000000000000000000000000000000000000000081526004016108ba9190610c3a565b60405180910390fd5b861561096f5773ffffffffffffffffffffffffffffffffffffffff84166108ea8789610b92565b604051600081818185875af1925050503d8060008114610926576040519150601f19603f3d011682016040523d82523d6000602084013e61092b565b606091505b50909250905081151560000361096f57806040517fbc98622d0000000000000000000000000000000000000000000000000000000081526004016108ba9190610c3a565b8515610a145760405173ffffffffffffffffffffffffffffffffffffffff8616908790600081818185875af1925050503d80600081146109cb576040519150601f19603f3d011682016040523d82523d6000602084013e6109d0565b606091505b509092509050811515600003610a1457806040517fe5ea83e70000000000000000000000000000000000000000000000000000000081526004016108ba9190610c3a565b8473ffffffffffffffffffffffffffffffffffffffff168373ffffffffffffffffffffffffffffffffffffffff167f570610cb78811f3a7f90d272791d0a5e71648fb7368280519fc5866e5184db1d8f8a8f610a709190610b92565b8a610a7b818e610b92565b60408051948552602085019390935291830152606082015260800160405180910390a350505050505050505050505050565b9055565b600060208284031215610ac357600080fd5b5035919050565b73ffffffffffffffffffffffffffffffffffffffff81168114610aec57600080fd5b50565b600060208284031215610b0157600080fd5b81356101fc81610aca565b600060208284031215610b1e57600080fd5b81516101fc81610aca565b7f4e487b7100000000000000000000000000000000000000000000000000000000600052601160045260246000fd5b60008219821115610b6b57610b6b610b29565b500190565b600060208284031215610b8257600080fd5b815180151581146101fc57600080fd5b600082821015610ba457610ba4610b29565b500390565b600060208284031215610bbb57600080fd5b5051919050565b6000817fffffffffffffffffffffffffffffffffffffffffffffffffffffffffffffffff0483118215151615610bfa57610bfa610b29565b500290565b600082610c35577f4e487b7100000000000000000000000000000000000000000000000000000000600052601260045260246000fd5b500490565b600060208083528351808285015260005b81811015610c6757858101830151858201604001528201610c4b565b81811115610c79576000604083870101525b50601f017fffffffffffffffffffffffffffffffffffffffffffffffffffffffffffffffe01692909201604001939250505056fea26469706673582212205b9aaa5fb96fb362d289ad0a764f3d077cd2ebfd70d399bc7905ff21f175e4da64736f6c634300080d0033","linkReferences":{}},"methodIdentifiers":{"dispatch(bytes32)":"ce120650","getStakingContract()":"8e68dce4","getWithdrawer(bytes32)":"27de9016","initCLD(address)":"5f0f28d9"},"id":29}