{"abi":[{"type":"constructor","inputs":[{"name":"_version","type":"uint256","internalType":"uint256"}],"stateMutability":"nonpayable"},{"type":"fallback","stateMutability":"payable"},{"type":"receive","stateMutability":"payable"},{"type":"function","name":"dispatch","inputs":[{"name":"_publicKeyRoot","type":"bytes32","internalType":"bytes32"}],"outputs":[],"stateMutability":"payable"},{"type":"function","name":"getStakingContract","inputs":[],"outputs":[{"name":"","type":"address","internalType":"address"}],"stateMutability":"view"},{"type":"function","name":"getWithdrawer","inputs":[{"name":"_publicKeyRoot","type":"bytes32","internalType":"bytes32"}],"outputs":[{"name":"","type":"address","internalType":"address"}],"stateMutability":"view"},{"type":"function","name":"initELD","inputs":[{"name":"_stakingContract","type":"address","internalType":"address"}],"outputs":[],"stateMutability":"nonpayable"},{"type":"event","name":"Withdrawal","inputs":[{"name":"withdrawer","type":"address","indexed":true,"internalType":"address"},{"name":"feeRecipient","type":"address","indexed":true,"internalType":"address"},{"name":"pubKeyRoot","type":"bytes32","indexed":false,"internalType":"bytes32"},{"name":"rewards","type":"uint256","indexed":false,"internalType":"uint256"},{"name":"nodeOperatorFee","type":"uint256","indexed":false,"internalType":"uint256"},{"name":"treasuryFee","type":"uint256","indexed":false,"internalType":"uint256"}],"anonymous":false},{"type":"error","name":"AlreadyInitialized","inputs":[]},{"type":"error","name":"FeeRecipientReceiveError","inputs":[{"name":"errorData","type":"bytes","internalType":"bytes"}]},{"type":"error","name":"InvalidCall","inputs":[]},{"type":"error","name":"TreasuryReceiveError","inputs":[{"name":"errorData","type":"bytes","internalType":"bytes"}]},{"type":"error","name":"WithdrawerReceiveError","inputs":[{"name":"errorData","type":"bytes","internalType":"bytes"}]},{"type":"error","name":"ZeroBalanceWithdrawal","inputs":[]}],"bytecode":{"object":"0x608060405234801561001057600080fd5b50604051610b3e380380610b3e83398101604081905261002f91610070565b610066817f2a83e6f793b1db0be720b1fadaabc888b1b7e5af00b045d6d837e073182510b161006c60201b6108921790919060201c565b50610089565b9055565b60006020828403121561008257600080fd5b5051919050565b610aa6806100986000396000f3fe6080604052600436106100435760003560e01c8063068a8c8d146100ac57806327de9016146100ce5780638e68dce414610117578063ce1206501461012c5761007a565b3661007a576040517fae962d4e00000000000000000000000000000000000000000000000000000000815260040160405180910390fd5b6040517fae962d4e00000000000000000000000000000000000000000000000000000000815260040160405180910390fd5b3480156100b857600080fd5b506100cc6100c73660046108bb565b61013f565b005b3480156100da57600080fd5b506100ee6100e93660046108d8565b610202565b60405173ffffffffffffffffffffffffffffffffffffffff909116815260200160405180910390f35b34801561012357600080fd5b506100ee6102c6565b6100cc61013a3660046108d8565b6102f5565b60016101697f2a83e6f793b1db0be720b1fadaabc888b1b7e5af00b045d6d837e073182510b15490565b610174906001610920565b81146101ac576040517f0dc149f000000000000000000000000000000000000000000000000000000000815260040160405180910390fd5b6101d57f2a83e6f793b1db0be720b1fadaabc888b1b7e5af00b045d6d837e073182510b1829055565b6101fe7fda87ab80a3be8afba92a2e1fa9eebe6df07c3e4f871642fcbd8b843ff0112511839055565b5050565b60008061022d7fda87ab80a3be8afba92a2e1fa9eebe6df07c3e4f871642fcbd8b843ff01125115490565b6040517fa74008010000000000000000000000000000000000000000000000000000000081526004810185905290915073ffffffffffffffffffffffffffffffffffffffff82169063a740080190602401602060405180830381865afa15801561029b573d6000803e3d6000fd5b505050506040513d601f19601f820116820180604052508101906102bf9190610938565b9392505050565b60006102f07fda87ab80a3be8afba92a2e1fa9eebe6df07c3e4f871642fcbd8b843ff01125115490565b905090565b476000819003610331576040517fb6562b0a00000000000000000000000000000000000000000000000000000000815260040160405180910390fd5b600061035b7fda87ab80a3be8afba92a2e1fa9eebe6df07c3e4f871642fcbd8b843ff01125115490565b6040517fa74008010000000000000000000000000000000000000000000000000000000081526004810185905290915060009073ffffffffffffffffffffffffffffffffffffffff83169063a740080190602401602060405180830381865afa1580156103cc573d6000803e3d6000fd5b505050506040513d601f19601f820116820180604052508101906103f09190610938565b6040517f9adf91ee0000000000000000000000000000000000000000000000000000000081526004810186905290915060009073ffffffffffffffffffffffffffffffffffffffff841690639adf91ee90602401602060405180830381865afa158015610461573d6000803e3d6000fd5b505050506040513d601f19601f820116820180604052508101906104859190610938565b905060008373ffffffffffffffffffffffffffffffffffffffff16633b19e84a6040518163ffffffff1660e01b8152600401602060405180830381865afa1580156104d4573d6000803e3d6000fd5b505050506040513d601f19601f820116820180604052508101906104f89190610938565b905060006127108573ffffffffffffffffffffffffffffffffffffffff16631bcbfaba6040518163ffffffff1660e01b8152600401602060405180830381865afa15801561054a573d6000803e3d6000fd5b505050506040513d601f19601f8201168201806040525081019061056e9190610955565b610578908861096e565b61058291906109ab565b905060006127108673ffffffffffffffffffffffffffffffffffffffff1663286966086040518163ffffffff1660e01b8152600401602060405180830381865afa1580156105d4573d6000803e3d6000fd5b505050506040513d601f19601f820116820180604052508101906105f89190610955565b610602908461096e565b61060c91906109ab565b905060008073ffffffffffffffffffffffffffffffffffffffff8716610632858b6109e6565b604051600081818185875af1925050503d806000811461066e576040519150601f19603f3d011682016040523d82523d6000602084013e610673565b606091505b5090925090508115156000036106c057806040517fce13343d0000000000000000000000000000000000000000000000000000000081526004016106b791906109fd565b60405180910390fd5b831561076c5773ffffffffffffffffffffffffffffffffffffffff85166106e784866109e6565b604051600081818185875af1925050503d8060008114610723576040519150601f19603f3d011682016040523d82523d6000602084013e610728565b606091505b50909250905081151560000361076c57806040517fbc98622d0000000000000000000000000000000000000000000000000000000081526004016106b791906109fd565b82156108115760405173ffffffffffffffffffffffffffffffffffffffff8716908490600081818185875af1925050503d80600081146107c8576040519150601f19603f3d011682016040523d82523d6000602084013e6107cd565b606091505b50909250905081151560000361081157806040517fe5ea83e70000000000000000000000000000000000000000000000000000000081526004016106b791906109fd565b73ffffffffffffffffffffffffffffffffffffffff8087169088167f570610cb78811f3a7f90d272791d0a5e71648fb7368280519fc5866e5184db1d8c610858888e6109e6565b87610863818b6109e6565b60408051948552602085019390935291830152606082015260800160405180910390a350505050505050505050565b9055565b73ffffffffffffffffffffffffffffffffffffffff811681146108b857600080fd5b50565b6000602082840312156108cd57600080fd5b81356102bf81610896565b6000602082840312156108ea57600080fd5b5035919050565b7f4e487b7100000000000000000000000000000000000000000000000000000000600052601160045260246000fd5b60008219821115610933576109336108f1565b500190565b60006020828403121561094a57600080fd5b81516102bf81610896565b60006020828403121561096757600080fd5b5051919050565b6000817fffffffffffffffffffffffffffffffffffffffffffffffffffffffffffffffff04831182151516156109a6576109a66108f1565b500290565b6000826109e1577f4e487b7100000000000000000000000000000000000000000000000000000000600052601260045260246000fd5b500490565b6000828210156109f8576109f86108f1565b500390565b600060208083528351808285015260005b81811015610a2a57858101830151858201604001528201610a0e565b81811115610a3c576000604083870101525b50601f017fffffffffffffffffffffffffffffffffffffffffffffffffffffffffffffffe01692909201604001939250505056fea26469706673582212208d6fc6846139f421c0af98813c0d8e583eaa01152bdf986c8d4d648074e9fcfc64736f6c634300080d0033","linkReferences":{}},"methodIdentifiers":{"dispatch(bytes32)":"ce120650","getStakingContract()":"8e68dce4","getWithdrawer(bytes32)":"27de9016","initELD(address)":"068a8c8d"},"id":31}