{"abi":[{"type":"function","name":"MAINNET_CONSENSUS_LAYER_FEE_DISPATCHER","inputs":[],"outputs":[{"name":"","type":"address","internalType":"address"}],"stateMutability":"view"},{"type":"function","name":"MAINNET_CONSENSUS_LAYER_FEE_DISPATCHER_PROXY","inputs":[],"outputs":[{"name":"","type":"address","internalType":"address"}],"stateMutability":"view"},{"type":"function","name":"MAINNET_EXECUTION_LAYER_FEE_DISPATCHER","inputs":[],"outputs":[{"name":"","type":"address","internalType":"address"}],"stateMutability":"view"},{"type":"function","name":"MAINNET_EXECUTION_LAYER_FEE_DISPATCHER_PROXY","inputs":[],"outputs":[{"name":"","type":"address","internalType":"address"}],"stateMutability":"view"},{"type":"function","name":"MAINNET_FEE_RECIPIENT","inputs":[],"outputs":[{"name":"","type":"address","internalType":"address"}],"stateMutability":"view"},{"type":"function","name":"MAINNET_STAKING_CONTRACT","inputs":[],"outputs":[{"name":"","type":"address","internalType":"address"}],"stateMutability":"view"},{"type":"function","name":"MAINNET_STAKING_CONTRACT_PROXY","inputs":[],"outputs":[{"name":"","type":"address","internalType":"address"}],"stateMutability":"view"},{"type":"function","name":"TESTNET_CONSENSUS_LAYER_FEE_DISPATCHER","inputs":[],"outputs":[{"name":"","type":"address","internalType":"address"}],"stateMutability":"view"},{"type":"function","name":"TESTNET_CONSENSUS_LAYER_FEE_DISPATCHER_PROXY","inputs":[],"outputs":[{"name":"","type":"address","internalType":"address"}],"stateMutability":"view"},{"type":"function","name":"TESTNET_EXECUTION_LAYER_FEE_DISPATCHER","inputs":[],"outputs":[{"name":"","type":"address","internalType":"address"}],"stateMutability":"view"},{"type":"function","name":"TESTNET_EXECUTION_LAYER_FEE_DISPATCHER_PROXY","inputs":[],"outputs":[{"name":"","type":"address","internalType":"address"}],"stateMutability":"view"},{"type":"function","name":"TESTNET_FEE_RECIPIENT","inputs":[],"outputs":[{"name":"","type":"address","internalType":"address"}],"stateMutability":"view"},{"type":"function","name":"TESTNET_STAKING_CONTRACT","inputs":[],"outputs":[{"name":"","type":"address","internalType":"address"}],"stateMutability":"view"},{"type":"function","name":"TESTNET_STAKING_CONTRACT_PROXY","inputs":[],"outputs":[{"name":"","type":"address","internalType":"address"}],"stateMutability":"view"}],"bytecode":{"object":"0x6102d261003a600b82828239805160001a60731461002d57634e487b7160e01b600052600060045260246000fd5b30600052607381538281f3fe73000000000000000000000000000000000000000030146080604052600436106100f45760003560e01c80638baaba2811610096578063d56f8cb711610070578063d56f8cb714610230578063e722f2e61461024b578063ec39488514610266578063f5e6398b1461028157600080fd5b80638baaba28146101df578063a1acf12f146101fa578063b7167d1e1461021557600080fd5b806335a78ce4116100d257806335a78ce41461017357806370dca7c41461018e578063755b99e0146101a95780637dbb9414146101c457600080fd5b80630794e26b146100f95780631ac2a6281461013d578063307c401314610158575b600080fd5b61011473ca4dd914fa713214844c84f153a5e1627536a7fc81565b60405173ffffffffffffffffffffffffffffffffffffffff909116815260200160405180910390f35b610114731acd717adf8a3a1e4c23c6510cfbe76834e3f1bf81565b6101147350dba42662fd69f5fd9236540aad9f99f7f6b3b281565b61011473933fbfeb4ed1f111d12a39c2ab48657e6fc875c681565b61011473cd01846f1b37ace16916969989c136e3c52ef7d281565b61011473a69ddebd0b6893a6f3d34a5df610d0e2ed433d1881565b610114731e68238ce926dec62b3fbc99ab06eb1d85ce027081565b61011473e8ec6f702d68ded71112031d78bbff959c7234c781565b6101147372b4c52f18f52eba3e4290a002df7c387427b05881565b61011473d36b422a7ee65219732724d849b8b6bced6155fe81565b61011473e8ff2a04837aac535199eecb5ece52b2735b354381565b61011473462dd07a79e5ddfbe0c171449c5c01788d5d03c381565b610114730a7272e8573aea8359fec143ac02aed90f822bd081565b61011473639d818639b85a1892bfbb40bd724b4ddea43c0c8156fea26469706673582212208704ef843f6dc815947410a6becaa0c8ed1b3d792c96cab4c4d16d877d65125464736f6c634300080d0033","linkReferences":{}},"methodIdentifiers":{"MAINNET_CONSENSUS_LAYER_FEE_DISPATCHER()":"e722f2e6","MAINNET_CONSENSUS_LAYER_FEE_DISPATCHER_PROXY()":"8baaba28","MAINNET_EXECUTION_LAYER_FEE_DISPATCHER()":"0794e26b","MAINNET_EXECUTION_LAYER_FEE_DISPATCHER_PROXY()":"a1acf12f","MAINNET_FEE_RECIPIENT()":"35a78ce4","MAINNET_STAKING_CONTRACT()":"ec394885","MAINNET_STAKING_CONTRACT_PROXY()":"7dbb9414","TESTNET_CONSENSUS_LAYER_FEE_DISPATCHER()":"b7167d1e","TESTNET_CONSENSUS_LAYER_FEE_DISPATCHER_PROXY()":"307c4013","TESTNET_EXECUTION_LAYER_FEE_DISPATCHER()":"755b99e0","TESTNET_EXECUTION_LAYER_FEE_DISPATCHER_PROXY()":"f5e6398b","TESTNET_FEE_RECIPIENT()":"1ac2a628","TESTNET_STAKING_CONTRACT()":"70dca7c4","TESTNET_STAKING_CONTRACT_PROXY()":"d56f8cb7"},"id":28}